S01800004156525F53747564696F5F726164696F2E73726563DE
S11300000C9435000C9403010C945D000C945D0079
S11300100C945D000C945D000C945D000C945D00E8
S11300200C945D000C945D000C945D000C945D00D8
S11300300C945D000C945D000C945D000C945D00C8
S11300400C945D000C945D000C945D000C945D00B8
S11300500C945D000C945D000C945D000C945D00A8
S11300600C945D000C945D00FC0111241FBECFEFC5
S1130070D8E0DEBFCDBF12E0A0E0B1E0E0EDF8E0F3
S113008002C005900D92A83BB107D9F722E0A8EB76
S1130090B2E001C01D92A23DB207E1F710E0CAE64A
S11300A0D0E004C02297FE010E946204C836D10742
S11300B0C9F70E946A010C9466040C940000E89A43
S11300C0E9E6F0E080818260808378940895CF939C
S11300D0DF9300D000D000D0CDB7DEB70E94550327
S11300E08DE091E00E946E038CEB92E00E940C0282
S11300F083E08E8342E050E0BE016A5F7F4F8CEB69
S113010092E00E942E0285E0E3E0F1E0DE01119628
S113011001900D928A95E1F725E030E0AE014F5F42
S11301205F4F6AE08CEB92E00E940D028DE191E05A
S11301300E946E038091010190910201892B29F0A4
S11301408CEB92E00E94A30204C08CEB92E00E942C
S11301509D028CEB92E00E94090340E050E067E0CE
S11301608CEB92E00E944F02FC0180818093B802E4
S11301708FE291E00E946E038091B8020E943104E4
S113018080EB91E00E946E036BE770E08CEB92E0F1
S11301900E94040288E391E00E946E038CEB92E0DB
S11301A00E9408020E94830380EB91E00E946E0388
S11301B0FFEF20E782E0F15020408040E1F700C0EB
S11301C000000E945F0040E050E060E08CEB92E0B1
S11301D00E944F02FC0180818093B8028EE691E078
S11301E00E946E038091B8020E94310480EB91E07A
S11301F00E946E0326960FB6F894DEBF0FBECDBFE5
S1130200DF91CF9108951F920F920FB60F92112490
S11302108F9381E08093BB028F910F900FBE0F905C
S11302201F90189587E791E00E946E0340E050E02C
S113023067E08CEB92E00E944F02FC018081809386
S1130240B8028FE291E00E946E038091B8020E948E
S1130250310480EB91E00E946E038091B80280FF2C
S113026004C083EB91E00E946E038091B80282FB8C
S1130270222720F981FB992790F9922B11F483FF0F
S113028004C082EC91E00E946E038091B80284FF66
S113029008C088ED91E00E946E038CEB92E00E940E
S11302A003038091B80285FF04C08DEE91E00E94A3
S11302B06E038091B80286FF0AC085E092E00E9436
S11302C06E0381E090E09093BA028093B902109299
S11302D0BB020895CF93DF9300D000D01F92CDB717
S11302E0DEB70E9467006894EE24E1F8FF24F394DB
S11302F015E08091BB02813011F40E9412018091BB
S1130300010190910201892B01F58EE192E00E9496
S11303106E03E8E0F1E0DE011196812F01900D9269
S11303208A95E1F745E050E0BE016F5F7F4F8CEBAB
S113033092E00E94A9022FEF83ED90E321508040C8
S11303409040E1F700C0000050C08091B902909144
S1130350BA02019709F049C062E070E08CEB92E0C8
S11303600E94D502FC0100818CEB92E00E940903FB
S1130370013099F5809100018F5F809300018CEB2F
S113038092E00E949D0240E050E060E08CEB92E03D
S11303900E944F02FC0180818093B80285E392E0C1
S11303A00E946E038091B8020E94310480EB91E0B8
S11303B00E946E03E982FA8242E050E0BE016F5F60
S11303C07F4F8CEB92E00E94A9028CEB92E00E949A
S11303D0A30281E492E00E946E038CEB92E00E94FF
S11303E03B031092BA021092B9028FE097E2019790
S11303F0F1F700C000007DCF8CEB92E00E94010277
S113040008950E9441030895FC01758B648B08953F
S1130410FC018489958908950895EF92FF920F93C2
S11304201F93CF93DF937A0189012A98862F8062E4
S11304300E945003101611064CF4E7010E0D1F1D07
S113044089910E945003C017D107D1F72A9ADF91EE
S1130450CF911F910F91FF90EF900895FF920F930A
S11304601F93CF93DF931F92CDB7DEB78C01F42E89
S113047021E030E0AB0162E00E940D02F98221E04C
S113048030E0AE014F5F5F4F61E1C8010E940D0291
S11304900F90DF91CF911F910F91FF900895CF920C
S11304A0DF92EF92FF920F931F93CF93DF936C0130
S11304B0862F7A012A980E945003FF2084F0860137
S11304C0025F1F4FC0E0D0E080E00E9450038EB571
S11304D0F80181938F012196EC16FD06ACF72A9A58
S11304E0C6010E96DF91CF911F910F91FF90EF906F
S11304F0DF90CF900895CF93DF9300D000D01F9268
S1130500CDB7DEB7662311F02FE001C02EE04423FF
S113051011F0226001C02D7F298321E030E0AE017B
S11305204F5F5F4F60E00E940D020F900F900F909D
S11305300F900F90DF91CF91089541E060E00E9409
S11305407B022998089541E061E00E947B02299A88
S11305500895EF92FF920F931F93CF93DF937B0144
S11305608A012A9880EA0E945003101611064CF45E
S1130570E7010E0D1F1D89910E945003C017D1077A
S1130580D1F72A9A299A8FE19EE40197F1F700C0E6
S1130590000088E992E00E946E032998DF91CF91D0
S11305A01F910F91FF90EF900895CF92DF92EF92F9
S11305B0FF920F931F93CF93DF936C017B012998D4
S11305C02A9881E60E945003FF2084F08601025F8E
S11305D01F4FC0E0D0E080E00E9450038EB5F801C8
S11305E081938F012196EC16FD06ACF72A9A299A7D
S11305F0C6010E96DF91CF911F910F91FF90EF905E
S1130600DF90CF9008952A9881EE0E9450032A9A91
S113061008950F931F93CF93DF931F92CDB7DEB747
S11306208C0180E4898321E030E0AE014F5F5F4FAD
S113063067E0C8010E940D0280E2898321E030E076
S1130640AE014F5F5F4F67E0C8010E940D0280E179
S1130650898321E030E0AE014F5F5F4F67E0C8015E
S11306600E940D02C8010E9403030F90DF91CF91F5
S11306701F910F9108952A9882EE0E9450032A9A9E
S11306800895229A2A9A239A2C9A259A8CB58260E4
S11306908CBD8CB580618CBD8CB580648CBD089597
S11306A08EBD0DB407FEFDCF08951092C50083E3FF
S11306B08093C400E0ECF0E080818D7F808388E14A
S11306C08093C10086E08093C2000895E0ECF0E0DE
S11306D0908195FFFDCF8093C60008951F93CF931B
S11306E0DF93EC018881882351F010E00E946603B7
S11306F01F5FFE01E10FF11D80818111F7CFDF91B2
S1130700CF911F9108950F931F93CF93DF93EC0123
S11307109C01329522952F7023273F702327A7E44D
S1130720B3E00E9451049695879596958795969582
S11307308795805D0E9466039E01369527953695C0
S1130740279536952795A5ECB0E20E945104AC019B
S1130750529542954F7045275F7045279A01ADEC3D
S1130760BCEC0E945104969587959695879596952D
S113077087959C01220F331F880F991F880F991F9B
S1130780880F991F820F931F9A01281B390BC901E7
S1130790805D0E9466039E013695279536952795C0
S11307A0ABE7B4E10E945104AC01569547959A0118
S11307B0ADECBCEC0E94510496958795969587956F
S11307C0969587959C01220F331F880F991F880FD8
S11307D0991F880F991F820F931F9A01281B390BA9
S11307E0C901805D0E9466039E01ADECBCEC0E94D1
S11307F051048C011695079516950795169507953E
S113080098010E945104969587959695879596959B
S113081087959C01220F331F880F991F880F991FFA
S1130820880F991F820F931F9801281B390BC90148
S1130830805D0E946603C801880F991F000F111F75
S1130840000F111F000F111F080F191FCE01801B6D
S1130850910B805D0E946603DF91CF911F910F91F0
S113086008951F93CF93DF931F92CDB7DEB789838B
S113087017E0898190E0012E02C0959587950A942E
S1130880E2F780FF04C081E30E94660303C080E3B3
S11308900E946603115068F70F90DF91CF911F916A
S11308A00895A29FB001B39FC001A39F700D811D45
S11308B01124911DB29F700D811D1124911D089565
S11308C0EE0FFF1F0590F491E02D0994F894FFCFEB
S11308D0050100E7E7E7E7E7010203041A42656759
S11308E0696E20737461727475700D0A00436F6EC3
S11308F066696775726520526164696F0D0A0053F9
S113090054415455533A20002A2A2A2A2A2A2A2AA8
S11309102A2A2A2A2A2A2A2A2A2A2A2A2A2A2A2A33
S11309202A2A2A2A2A2A2A2A2A2A2A2A2A2A202037
S113093064656275675F76616C20203D2000434FDB
S11309404E4649473A2000202D2D2D2D2D2D2D2D9D
S11309502D2D2D2D2D2D2D2D2D2D20524553504F28
S11309604E4420544F20495251202D2D2D2D2D2DF4
S11309702D2D2D2D2D2D2D2D2D2D2D2D2D2D2D20B0
S11309800D0A0054585F4649464F2046756C6C0D5D
S11309900A0050697065204E756D62657220436867
S11309A0616E6765640D0A004D61782054582072A9
S11309B0657472696573204952510D0A004461746B
S11309C0612053656E74205458204649464F20498F
S11309D052510D0A0044617461207265616479208A
S11309E05258204649464F204952510D0A0054722C
S11309F0616E736D697420636F6465206162632046
S1130A00676F0D0A00434F4E4649472074783A20D9
S1130A1000446174612073656E742C20636F6E747E
S1130A20696E75650D0A00446174612072617465B4
S1130A30206D7573742062652073657420746F2053
S1130A406569746865722032353020286B425053D2
S1130A50292C203120284D42505329206F722032F6
S1130A6020284D4250532900446174612073656EFF
S1130A70742066726F6D206D79526164696F2E7493
S10B0A8078446174610D0A0061
S9030000FC
